:100000000C946E000C9478000C9478000C9478009A
:100010000C9478000C9478000C9478000C94780080
:100020000C9478000C9478000C9478000C94780070
:100030000C9478000C9478000C9478000C94780060
:100040000C9478000C9478000C9478000C94780050
:100050000C9478000C9478000C9478000C94780040
:100060000C9478000C947800084AD73B3BCE016E84
:1000700084BCBFFDC12F3D6C74319ABD56833DDAFF
:100080003D00C77F11BED9E4BB4C3E916BAAAABE0E
:10009000000000803F072C7AA5BA6CC590DA3B932C
:1000A00065FC8BBC53F810FD3C5692834DBD879D7B
:1000B0003AB63DCBC9BF5BBE73DA0FC93F05A84C4A
:1000C000CDB2D44EB93836A9020C50B99186880801
:1000D0003CA6AAAA2ABE000000803F0011241FBE31
:1000E000CFEFD8E0DEBFCDBF0E94190D0C944A11AE
:1000F0000C9400002F923F924F925F926F927F92EA
:100100008F929F92AF92BF92CF92DF92EF92FF9227
:100110000F931F93CF93DF93CDB7DEB7C456D109AA
:100120000FB6F894DEBF0FBECDBF8C01DB018D9101
:100130009C91F80191838083DA018D919C91938346
:1001400082836801B4E0CB0ED11C21ED31E049E699
:1001500050E060E0C6010E9401085801EAE0AE0EDE
:10016000B11C28ED31E04FE550E061E0C5010E948F
:1001700001084801F0E18F0E911C2EEF31E047E8B5
:1001800050E062E0C4010E940108C80146962B9627
:100190009FAF8EAF2B9720E931E042E850E065E059
:1001A0000E940108D8015C962D96BFAFAEAF2D9787
:1001B0002BED31E044E650E066E0CD010E940108FD
:1001C000F801B2962F96FFAFEEAF2F972DEB31E0EF
:1001D0004CE550E067E0CF010E940108C801889615
:1001E00061969FAF8EAF619722EC31E044E650E01C
:1001F0006DE00E940108D8019E966396BFAFAEAF36
:1002000063972CEE31E044E850E06EE0CD010E94AF
:100210000108F801F4966596FFAFEEAF65972BEDF8
:1002200031E04EE650E06FE0CF010E940108C801C6
:10023000CA9667969FAF8EAF67972DEB31E045E585
:1002400050E060E00E940108D801A05CBF4F6996B1
:10025000BFAFAEAF69972EEA31E042E850E061E00F
:10026000CD010E940108F801EA5BFF4F6B96FFAFDA
:10027000EEAF6B9725E831E045E550E062E0CF0155
:100280000E940108C801845B9F4F6D969FAF8EAF9F
:100290006D972FE931E04DE750E065E00E940108DD
:1002A000D801AE5ABF4F6F96BFAFAEAF6F9726EC77
:1002B00031E04AE550E066E0CD010E940108F80116
:1002C000E85AFF4FA196FFAFEEAFA1972DEB31E0BB
:1002D00049E550E067E0CF010E9401083801FEE5E2
:1002E0006F0E711C28EB31E042E850E06DE0C30175
:1002F0000E940108C8018C599F4FA3969FAF8EAFF3
:10030000A39727EC31E045E550E06EE00E9401083C
:10031000D801A659BF4FA596BFAFAEAFA5972CE7A2
:1003200031E045E550E06FE0CD010E94010880E03A
:1003300090E0A8E3B1E421968CAF9DAFAEAFBFAF24
:100340002197212C312C88E6482E81E4582E2596C1
:100350002CAE3DAE4EAE5FAE259729961CAE1DAEBF
:100360001EAE1FAE299792E49F9388E78F931F924A
:100370001F9291E4E92EEF9228E0F22EFF921F9255
:100380001F92ADB7BEB71C970FB6F894BEBF0FBE95
:10039000ADBF11968CE0FE01FD9601900D928A95FD
:1003A000E1F79401A501B601C80180599F4F0E9451
:1003B000580819AA1AAA1BAA1CAA80E090E0A0E774
:1003C000B1E48DAB9EABAFABB8AF19AE1AAE1BAEFE
:1003D0001CAE1F921F921F921F92B0E4BF9330ED8C
:1003E000C32ECF921F921F92EDB7FEB73C970FB668
:1003F000F894FEBF0FBEEDBFADB7BEB711968CE04F
:10040000FE01F19601900D928A95E1F72F962EAD9F
:100410003FAD2F972D964EAD5FAD2D972B966EADC0
:100420007FAD2B97C8018A569F4F0E945808812C98
:10043000912C48E3A42E41ECB42E8DA29EA2AFA233
:10044000B8A629A63AA64BA65CA61DA61EA61FA660
:1004500018AA0FB6F894DEBF0FBECDBF53E4D52E59
:10046000DF9285E98F931F921F92EF92FF921F9266
:100470001F92ADB7BEB71C970FB6F894BEBF0FBEA4
:10048000ADBF11968CE0FE01B59601900D928A9554
:10049000E1F765962EAD3FAD659763964EAD5FADC6
:1004A000639761966EAD7FAD6197C80184549F4F8D
:1004B0000E945808898E9A8EAB8EBC8E812C912C0E
:1004C00068E6A62E61ECB62E8D8E9E8EAF8EB8A2FB
:1004D00019A21AA21BA21CA2DF9282E78F931F927D
:1004E0001F92EF92FF921F921F92EDB7FEB73C97BB
:1004F0000FB6F894FEBF0FBEEDBFADB7BEB71196F5
:100500008CE0FE01799601900D928A95E1F76B9649
:100510002EAD3FAD6B9769964EAD5FAD699767960F
:100520006EAD7FAD6797C8018E519F4F0E945808EE
:100530001D861E861F86188A80E090E0A0E7B1EC39
:10054000898B9A8BAB8BBC8B1D8A1E8A1F8A188E57
:100550000FB6F894DEBF0FBECDBFDF9284E38F935A
:100560001F921F9290E49F93CF921F921F92ADB75C
:10057000BEB71C970FB6F894BEBF0FBEADBF1196A5
:100580008CE0FE013D9601900D928A95E1F7A196CF
:100590002EAD3FADA1976F964EAD5FAD6F976D9647
:1005A0006EAD7FAD6D97C801885F9E4F0E94580861
:1005B00080E090E0A8E3B1E489839A83AB83BC83B5
:1005C0008D829E82AF82B88619861A861B861C860B
:1005D00092E49F938CEE8F931F921F92EF92FF9263
:1005E0001F921F92ADB7BEB71C970FB6F894BEBF4F
:1005F0000FBEADBF11968CE0FE01319601900D92B9
:100600008A95E1F7A5962EAD3FADA597A3964EAD81
:100610005FADA397B301C801825D9E4F0E94580849
:100620000FB6F894DEBF0FBECDBFCC59DF4F0FB66B
:10063000F894DEBF0FBECDBFDF91CF911F910F9118
:10064000FF90EF90DF90CF90BF90AF909F908F90F2
:100650007F906F905F904F903F902F900895AF9252
:10066000BF92CF92DF92EF92FF920F931F93CF939F
:10067000DF937C016B0186E2849FE001859FD00DB2
:1006800011248E0100591F4F0E0D1F1DD701AC0FF5
:10069000BD1FAE57BF4F8CE0F90101900D928A95B6
:1006A000E1F7C8010E94F30BC8010E9409085C0130
:1006B000C8010E944D08950140E050E0682FC60136
:1006C0000E9471068E010A581F4F0E0D1F1DC80192
:1006D0000E9409085C01C8010E944D08950140E094
:1006E00050E0682FC6010E947106C458DF4FCE0D3E
:1006F000DF1DCE010E9409088C01CE010E944D0829
:10070000980140E050E0682FC601DF91CF911F9122
:100710000F91FF90EF90DF90CF90BF90AF900C942F
:1007200071068F929F92AF92BF92CF92DF92EF921B
:10073000FF920F931F93CF93DF93CDB7DEB7CC50CB
:10074000D3400FB6F894DEBF0FBECDBF6C014B0196
:100750005A018E010F5F1F4F7E0183EFE81A8CEF65
:10076000F80AF80110821182128213821482158213
:100770001682178210861186128613863C96EE1515
:10078000FF0581F746E24A9DC0014B9D900D112463
:1007900080599F4FA901B8018C0D9D1D0E94200911
:1007A0008FE79EE30197F1F700C000009801A501D3
:1007B000B401C6010E942F03045F1F4F0E151F05D1
:1007C00079F7C45FDC4F0FB6F894DEBF0FBECDBF24
:1007D000DF91CF911F910F91FF90EF90DF90CF901D
:1007E000BF90AF909F908F9008952F923F924F921D
:1007F0005F926F927F928F929F92AF92BF92CF92B1
:10080000DF92EF92FF920F931F93CF93DF93CDB7B9
:10081000DEB767970FB6F894DEBF0FBECDBF8C0171
:10082000812C912CA12C81E4B82E89829A82AB82F2
:10083000BC82C12CD12C90E4E92E91E4F92ECD821A
:10084000DE82EF82F88619861A861B861C869E0138
:100850002F5F3F4F40E050E0B801C8010E942F03D6
:100860002FEF83ED90E3215080409040E1F700C0EE
:10087000000019821A821B821C82CD82DE82EF82E6
:10088000F88619861A861B861C869E012F5F3F4FAD
:1008900041E050E0B801C8010E942F03AFEFB3ED73
:1008A000E0E3A150B040E040E1F700C00000412C7F
:1008B000512C20E2622E21EC722E49825A826B82E8
:1008C0007C82CD82DE82EF82F88619861A861B86AC
:1008D0001C869E012F5F3F4F42E050E0B801C801E7
:1008E0000E942F03FFEF23ED80E3F1502040804072
:1008F000E1F700C0000089829A82AB82BC82812C21
:10090000912C30E4A32E31ECB32E8D829E82AF82E7
:10091000B88619861A861B861C86780192E0E90E35
:10092000F11C9E012F5F3F4F45E050E0B701C80129
:100930000E942F03AFEFB3EDE0E3A150B040E040E1
:10094000E1F700C0000019821A821B821C828D828E
:100950009E82AF82B88619861A861B861C869E01E7
:100960002F5F3F4F44E050E0B701C8010E942F03C2
:10097000FFEF23ED80E3F15020408040E1F700C01D
:10098000000049825A826B827C828D829E82AF8275
:10099000B88619861A861B861C869E012F5F3F4FDC
:1009A00043E050E0B701C8010E942F0393E09F8B02
:1009B000812C912C40E4A42E41E4B42E412C512CE6
:1009C00050E4652E51EC752ED801A059BF4FBE875B
:1009D000AD87F801E25DFE4FF88BEF87C8018A56BC
:1009E0009F4F9A8B898BA856BF4FBC8BAB8BE2571E
:1009F000F109FE8BED8B1801F2EE2F0E311C2FEF5B
:100A000083ED90E3215080409040E1F700C000006A
:100A100080E090E0A0E2B1E489839A83AB83BC8359
:100A20008D829E82AF82B88619861A861B861C86A6
:100A30009E012F5F3F4F40E050E0B801C8010E9487
:100A400091039FEFA3EDB0E39150A040B040E1F7D8
:100A500000C0000080E090E0A0E2B1E489839A83C6
:100A6000AB83BC834D825E826F82788619861A863C
:100A70001B861C869E012F5F3F4F45E050E0B7016B
:100A8000C8010E9491039FEFA3EDB0E39150A040F5
:100A9000B040E1F700C0000080E090E0A0E0B0E4EA
:100AA00089839A83AB83BC838D829E82AF82B88612
:100AB00019861A861B861C869E012F5F3F4F41E0D8
:100AC00050E0B801C8010E9491039FEFA3EDB0E38D
:100AD0009150A040B040E1F700C0000080E090E0FD
:100AE000A0E0B0E489839A83AB83BC834D825E82AD
:100AF0006F82788619861A861B861C869E012F5F58
:100B00003F4F44E050E0B701C8010E9491039FEFBE
:100B1000A3EDB0E39150A040B040E1F700C0000069
:100B200080E090E0A0EEB0EC89839A83AB83BC8335
:100B30008D829E82AF82B88619861A861B861C8695
:100B40009E012F5F3F4F42E050E0B801C8010E9474
:100B500091039FEFA3EDB0E39150A040B040E1F7C7
:100B600000C0000080E090E0A0EEB0EC89839A83A2
:100B7000AB83BC834D825E826F82788619861A862B
:100B80001B861C869E012F5F3F4F43E050E0B7015C
:100B9000C8010E9491039FEFA3EDB0E39150A040E4
:100BA000B040E1F700C00000ED85FE8580818451F2
:100BB0008083CF010E9409086C018D859E850E946B
:100BC0004D08960140E050E0682FC8010E94710670
:100BD000AF85B8898C918C5E8C93CD010E940908F9
:100BE0006C018F8598890E944D08960140E050E085
:100BF000682FC7010E947106E989FA8980818451B2
:100C00008083CF010E9409086C0189899A890E941A
:100C10004D08960140E050E0682FC8010E9471061F
:100C2000AB89BC898C918C5E8C93CD010E940908A4
:100C30006C018B899C890E944D08960140E050E030
:100C4000682FC7010E947106ED89FE898081845159
:100C50008083CF010E9409086C018D899E890E94C2
:100C60004D08960140E050E0682FC8010E947106CF
:100C7000D1018C918C5E8C93C1010E9409086C019A
:100C8000C1010E944D08960140E050E0682FC70165
:100C90000E947106BFEFE3EDF0E3B150E040F04099
:100CA000E1F700C000002F8921502F8B2111A7CE22
:100CB00067960FB6F894DEBF0FBECDBFDF91CF9120
:100CC0001F910F91FF90EF90DF90CF90BF90AF906A
:100CD0009F908F907F906F905F904F903F902F905C
:100CE00008950F93CF93DF9300D000D01F92CDB71C
:100CF000DEB7660F660F6A5F69834A835B832C8366
:100D00003D8301E025E0AE014F5F5F4FFC01608154
:100D100001960E9473070F900F900F900F900F9005
:100D2000DF91CF910F910895CF92DF92EF92FF92D2
:100D30000F93CF93DF9300D0CDB7DEB77C016A83EA
:100D40006C018FEFC81AD80A01E021E0AE014E5FB6
:100D50005F4FF7016081C6010E94730721E0AE0179
:100D60004F5F5F4FF7016081C6010E94BD07898117
:100D70000F900F90DF91CF910F91FF90EF90DF9048
:100D8000CF9008950F93CF93DF9300D0CDB7DEB708
:100D900069834A8301E022E0AE014F5F5F4FFC01AF
:100DA000608101960E9473070F900F90DF91CF91A1
:100DB0000F91089540E860E00E94C2068FEC97E032
:100DC0000197F1F700C000000895CF92DF92EF92F3
:100DD000FF921F93CF93DF93EC01CB01BA0126E67C
:100DE00036E646E65FE30E94231020E030E040E86C
:100DF00055E40E9423109B01AC0160E27CEB8EEB7A
:100E00009BE40E94420E20E030E040E05FE30E945D
:100E10009C0D0E9490106B017C0160E0CE010E944D
:100E20009406182F482F4F76406160E0CE010E9453
:100E3000C206C701B6010E94B40E462F6EEFCE0166
:100E40000E94C206412F60E0CE010E94C2068FECD4
:100E500097E00197F1F700C00000412F406A60E081
:100E6000CE01DF91CF911F91FF90EF90DF90CF9057
:100E70000C94C206CF93DF93D82FC92FFC01619346
:100E8000CF0140EA56E861E070E00E9455078D2FDF
:100E90009C2F0E94DA0640E050E068E472E48D2F57
:100EA0009C2FDF91CF910C94E5069A01AB0180E372
:100EB00088B91092B90060E074E284EF90E00E947B
:100EC0004A0DCA01B901605171098109910922E0F5
:100ED00030E040E050E00E944A0D2093B80084E4E6
:100EE0008093BC0008950F9384EE8093BC008091A2
:100EF000BC0087FFFCCF8091B900887F883029F043
:100F00008091B900887F803131F570E0660F771FDE
:100F10006093BB0084EC8093BC008091BC0087FF91
:100F2000FCCF8091B900887F8831A9F4942FFA0111
:100F300034EC8E2F891B821790F481918093BB0033
:100F40003093BC008091BC0087FFFCCF8091B9003A
:100F5000887F883271F38091B900887F0CC00111BD
:100F600002C08FEF08C084ED8093BC008091BC006C
:100F700084FDFCCFF6CF0F9108950F9384EE8093FC
:100F8000BC008091BC0087FFFCCF8091B900887FB6
:100F9000883029F08091B900887F8031E1F4660FB4
:100FA00061606093BB0084EC8093BC008091BC00C6
:100FB00087FFFCCF8091B900887F803461F484E89A
:100FC0008093BC008091BC0087FFFCCF8091B9006A
:100FD000887F883521F08091B900887F10C080918A
:100FE000BB00FA018083011102C08FEF08C084EDBD
:100FF0008093BC008091BC0084FDFCCFF6CF0F91A4
:101000000895FC01108261835383428335832483D6
:101010000895CF92DF92EF92FF92CF93DF93FC017E
:10102000C281D381248135812C1B3D0B8081829F1D
:10103000B001839F700D112480E090E00E94E30EC8
:101040009B01AC010E949D0D20E030E044E353E49D
:101050000E94420E20E030E040E85FE30E949D0DD8
:1010600020E030E040E05FE30E9423106B017C0150
:10107000BE0180E090E00E94E30E9B01AC01C7013D
:10108000B6010E949D0D0E94B40ECB01DF91CF915D
:10109000FF90EF90DF90CF900895FC01818108953B
:1010A000653B10F4FC0160830895FC018081089584
:1010B0000F931F93CF93DF93CDB7DEB7890136E04F
:1010C000FB01DC0101900D923A95E1F736E0FA015F
:1010D000DC01169601900D923A95E1F736E0F801A1
:1010E000DC011C9601900D923A95E1F72CE0FE018F
:1010F0003796DC01529601900D922A95E1F74B89C3
:101100005C896D897E89FC01468F578F60A371A32E
:101110004F89588D698D7A8D42A353A364A375A31B
:10112000DF91CF911F910F9108952F923F924F928F
:101130005F926F927F92AF92BF92CF92DF92EF92C7
:10114000FF920F931F93CF93DF93CDB7DEB72C970A
:101150000FB6F894DEBF0FBECDBF2D833E834F8305
:101160005887E986FA860B871C87FC0142885388DA
:10117000648875888B011B01F4EF2F1AFCEF3F0A7E
:101180002D813E814F815885C301B2010E949D0D82
:101190002B013C012BA13CA14DA15EA10E949C0D05
:1011A00069837A838B839C83F801408251826282B7
:1011B000738229853A854B855C85C301B2010E9403
:1011C0002310A60195010E949D0DF801648375838B
:1011D0008683978329813A814B815C81CA01B90159
:1011E0000E9423102F8D38A149A15AA10E942310DB
:1011F0002FA138A549A55AA50E949D0DF801608729
:10120000718782879387045F1F4F2016310609F08C
:10121000B7CF2C960FB6F894DEBF0FBECDBFDF91CF
:10122000CF911F910F91FF90EF90DF90CF90BF90E3
:10123000AF907F906F905F904F903F902F90089568
:101240002F923F924F925F926F927F928F929F92D6
:10125000AF92BF92CF92DF92EF92FF920F931F93C4
:10126000CF93DF93CDB7DEB76F970FB6F894DEBF9D
:101270000FBECDBF1C017A8F698F5A834983DA0173
:101280004D905D906D907C90DC0152962D913D913A
:101290004D915C91559729873A874B875C87C301AD
:1012A000B2010E949C0D698B7A8B8B8B9C8BA981E0
:1012B000BA8114962D913D914D915C9117972D8790
:1012C0003E874F87588BF10126893789408D518D94
:1012D0006D857E858F8598890E949C0D29893A8924
:1012E0004B895C890E94420E6D8B7E8B8F8B988F11
:1012F000A981BA8118962D913D914D915C911B97D2
:1013000029833A834B835C83D1015A962D913D9179
:101310004D915C915D972D833E834F835887698102
:101320007A818B819C810E9423106B017C0120E0DB
:1013300030E040EA50E469817A818B819C810E948F
:1013400023109B01AC01C701B6010E949C0D6B01EB
:101350007C0120E030E040EA50E46D817E818F81A5
:1013600098850E9423109B01AC01C701B6010E9421
:101370009C0D20E030E048EC51E40E949D0D0E945D
:10138000C2104B015C01A301920169857A858B85AE
:101390009C850E949C0D6B017C012D813E814F81BB
:1013A000588569817A818B819C810E949D0D20E006
:1013B00030E040E251E40E949C0D6B8F7C8F8D8F5A
:1013C0009E8FA5019401C501B4010E949D0D9B0152
:1013D000AC016B8D7C8D8D8D9E8D0E949C0D4B0183
:1013E0005C01A7019601C701B6010E9423109B0171
:1013F000AC01C501B4010E94420E062F7B8F8F8F76
:10140000192F2D893E894F89588DC301B2010E9441
:1014100023109B01AC016D857E858F8598890E9484
:101420009C0D5B016C0120E030E042E852E46989E8
:101430007A898B899C890E94420E6D877E878F876F
:10144000988B80E48F9380EA8F931F921F926B8D0D
:101450009F8D202F362F492F512FC301B2010E949B
:101460002310A30192010E9423102D813E814F8100
:1014700058850E949D0D6D837E838F8398876B8D29
:101480009F8D202F362F492F512F69857A858B8587
:101490009C850E94231029853A854B855C850E9496
:1014A00023109B01AC016D817E818F8198850E9404
:1014B0009C0D29813A814B815C810E949C0D9B018E
:1014C000AC01505829833A834B835C8320E030E0A1
:1014D00040E050ECAB8DFF8D602F7A2F8F2F912F36
:1014E0000E942310A30192010E9423102B013C01B2
:1014F0006B8D9F8D202F362F492F512F602F732FEB
:10150000892F912F0E949D0D29853A854B855C85F9
:101510000E9423109B01AC01C301B2010E949D0DEA
:101520009B01AC0169817A818B819C810E94420E72
:101530009F938F937F936F931F933F8D3F934B8D1B
:101540004F930F93ED88FE880F89188D2D853E856A
:101550004F855889698D7A8DC1010E9495080FB613
:10156000F894DEBF0FBECDBF6F960FB6F894DEBF06
:101570000FBECDBFDF91CF911F910F91FF90EF90E4
:10158000DF90CF90BF90AF909F908F907F906F90A3
:101590005F904F903F902F900895FB0124813581FB
:1015A0004681578160817181828193810E94420EC0
:1015B0000E94090E20E030E044E353E40E9423102F
:1015C0002BED3FE049E450E40E94420E20E030E081
:1015D00044EB52E40E949D0D0895CF92DF92EF926A
:1015E000FF92CF93FC01C2A0D3A0E4A0F5A020E01D
:1015F00030E0A901C701B6010E94380E8823B9F076
:1016000020E030E048E752E4C701B6010E94380EFE
:10161000C1E0882369F020E030E045E953E4C701E8
:10162000B6010E94380E882319F0C0E001C0C1E065
:101630008C2FCF91FF90EF90DF90CF9008954F9235
:101640005F926F927F928F929F92AF92BF92CF9252
:10165000DF92EF92FF92CF93DF93EC0169017A0161
:10166000FB01208531854285538560E070E080EA8A
:1016700090E40E949C0DA70196010E94420E0E94D8
:101680008B0D2B013C01A7019601C701B6010E94F9
:10169000231020E030E840E952E40E949D0D20E054
:1016A00030E444E053E40E949C0D4B015C0120E0D7
:1016B00030E048E851E4C701B6010E9423109B01C5
:1016C000AC01C501B4010E94420E0E948B0D4B017A
:1016D0005C0120E030E044E353E4C301B2010E9426
:1016E00023102BED3FE049E450E40E94420E6B01D1
:1016F0007C0120E030E044E353E4C501B4010E94E2
:1017000023102BED3FE049E450E40E94420E9B0180
:10171000AC01C701B6010E949D0D6B017C01CE0199
:101720000E94ED0A882339F020E030E044E352E4DF
:10173000C701B60106C0A701960160E070E081E62E
:1017400093E40E949C0DDF91CF91FF90EF90DF908A
:10175000CF90BF90AF909F908F907F906F905F9051
:101760004F900895CF92DF92EF92FF92CF93DF9345
:10177000EC01CA01B9010E9423109B01AC0160E099
:1017800070E88CE493E40E949C0D20E030E843E490
:1017900053E40E94420E0E948B0D20E030E044E3AF
:1017A00053E40E9423102BED3FE049E450E40E94F3
:1017B000420E6B017C01CE010E94ED0A882351F09C
:1017C000A701960160E070E084E393E40E949C0D21
:1017D0006B017C01C701B601DF91CF91FF90EF90C3
:1017E000DF90CF9008954F925F926F927F928F9289
:1017F0009F92AF92BF92CF92DF92EF92FF920F93A0
:101800001F93CF93DF93CDB7DEB764970FB6F894ED
:10181000DEBF0FBECDBF8C018CE0F8017296DE01F9
:10182000119601900D928A95E1F789819A81AB8199
:10183000BC818D879E87AF87B88B2BED3FE049E455
:1018400050E4D80192966D917D918D919C919597E0
:101850000E94231020E030E044E353E40E94420E53
:101860006B017C010E943D0E4B015C018D819E81CC
:10187000AF81B885898B9A8BAB8BBC8BC701B601C6
:101880000E94B4102B013C01A50194016D857E8559
:101890008F8598890E9423106B017C01A30192011E
:1018A00069897A898B899C890E9423109B01AC01EC
:1018B000C701B6010E949C0D6B017C0169837A838C
:1018C0008B839C83A30192016D857E858F8598898A
:1018D0000E9423102B013C0129893A894B895C899C
:1018E000C501B4010E9423109B01AC01C301B201E8
:1018F0000E949D0DD8015E962D913D914D915C9178
:1019000091970E949C0D4B015C016D837E838F83B8
:101910009887A7019601C701B6010E9423106B01A9
:101920007C01A5019401C501B4010E9423109B0113
:10193000AC01C701B6010E949D0D0E94C2106B014F
:101940007C0129853A854B855C8560E070E080EA02
:1019500090E40E949C0D4B015C0120E030E040E2ED
:1019600050E4C701B6010E949C0D6B017C01A501EA
:101970009401C501B4010E9423104B015C01A70131
:101980009601C701B6010E9423109B01AC01C5015D
:10199000B4010E949D0D0E94C2106B017C01BE012A
:1019A0006F5F7F4FC8010E94CD0A2B013C01A70148
:1019B0009601BE016F5F7F4FC8010E941F0B4B0154
:1019C0005C01A7019601BE016F5F7F4FC8010E94B5
:1019D000B20B6B017C01C301B2010E94B40EC801BD
:1019E0000E945008C501B4010E94B40EC8010696B9
:1019F0000E945008C701B6010E94B40EC8010C969F
:101A00000E94500864960FB6F894DEBF0FBECDBF9B
:101A1000DF91CF911F910F91FF90EF90DF90CF90CA
:101A2000BF90AF909F908F907F906F905F904F90FE
:101A30000895CF93DF93CDB7DEB7C855D1400FB629
:101A4000F894DEBF0FBECDBF60E4CE01895A9E4F31
:101A50000E943A0761E4CE018B5A9E4F0E943A07DA
:101A6000AE014B5A5E4FBE01695A7E4FCE010196C0
:101A70000E947A00CE0101960E94F50380E090E07A
:101A8000C85ADE4F0FB6F894DEBF0FBECDBFDF9150
:101A9000CF910895052E97FB1EF400940E94610DCE
:101AA00057FD07D00E94690D07FC03D04EF40C943B
:101AB000610D50954095309521953F4F4F4F5F4FA9
:101AC000089590958095709561957F4F8F4F9F4FAA
:101AD0000895A1E21A2EAA1BBB1BFD010DC0AA1F6F
:101AE000BB1FEE1FFF1FA217B307E407F50720F087
:101AF000A21BB30BE40BF50B661F771F881F991F02
:101B00001A9469F760957095809590959B01AC014A
:101B1000BD01CF0108959F939F770E94200F0F90E2
:101B2000002042F49058A2EA2AED3FE049E450E454
:101B30000E94B40D0C94CD0F5058BB27AA270E94C9
:101B4000B40D0C94CD0F0E94940F38F00E949B0F9F
:101B500020F039F49F3F19F426F40C946A0F0EF428
:101B6000E095E7FB0C94640FE92F0E94F20F58F305
:101B7000BA17620773078407950720F079F4A6F572
:101B80000C9414100EF4E0950B2EBA2FA02D0B011F
:101B9000B90190010C01CA01A0011124FF27591BB2
:101BA00099F0593F50F4503E68F11A16F040A22FB8
:101BB000232F342F4427585FF3CF46953795279529
:101BC000A795F0405395C9F77EF41F16BA0B620B28
:101BD000730B840BBAF09150A1F0FF0FBB1F661F6F
:101BE000771F881FC2F70EC0BA0F621F731F841FB2
:101BF00048F4879577956795B795F7959E3F08F0D8
:101C0000B0CF9395880F08F09927EE0F9795879599
:101C10000895DF93DD27B92FBF7740E85FE31616FD
:101C2000170648075B0718F4D92F0E941B109F93D3
:101C30008F937F936F930E940211E8E6F0E00E9479
:101C40006D0F0E94CD0F2F913F914F915F910E9498
:101C50003610DD2351F09058A2EA2AED3FE049EC1E
:101C60005FE3D0785D270E94B40DDF910C94CD0F17
:101C70000E94400F08F481E008950E94A40FE395AC
:101C80000C94DE0F0E94560E0C94CD0F0E949B0FF9
:101C900058F00E94940F40F029F45F3F29F00C9413
:101CA000640F51110C9415100C946A0F0E94F20FDE
:101CB00068F39923B1F3552391F3951B550BBB277B
:101CC000AA2762177307840738F09F5F5F4F220FC0
:101CD000331F441FAA1FA9F335D00E2E3AF0E0E8B7
:101CE00032D091505040E695001CCAF72BD0FE2F01
:101CF00029D0660F771F881FBB1F26173707480795
:101D0000AB07B0E809F0BB0B802DBF01FF2793584C
:101D10005F4F3AF09E3F510578F00C94640F0C949D
:101D200015105F3FE4F3983ED4F386957795679559
:101D3000B795F7959F5FC9F7880F911D9695879581
:101D400097F90895E1E0660F771F881FBB1F6217A0
:101D500073078407BA0720F0621B730B840BBA0B5E
:101D6000EE1F88F7E09508950E94FA0F88F09F57BC
:101D700098F0B92F9927B751B0F0E1F0660F771FAF
:101D8000881F991F1AF0BA95C9F714C0B13091F0A5
:101D90000E941410B1E008950C941410672F782F4E
:101DA0008827B85F39F0B93FCCF38695779567956A
:101DB000B395D9F73EF490958095709561957F4FD6
:101DC0008F4F9F4F0895E89409C097FB3EF490957C
:101DD0008095709561957F4F8F4F9F4F9923A9F004
:101DE000F92F96E9BB279395F69587957795679593
:101DF000B795F111F8CFFAF4BB0F11F460FF1BC0D7
:101E00006F5F7F4F8F4F9F4F16C0882311F096E969
:101E100011C0772321F09EE8872F762F05C0662317
:101E200071F096E8862F70E060E02AF09A95660FD0
:101E3000771F881FDAF7880F9695879597F9089589
:101E4000DF93CF931F930F938B01EC01E5E9F0E053
:101E50000E946D0F0E94CD0F9801AE018B01EC0125
:101E600060E070E080E89FE30E949C0D0E94C21039
:101E70009801AE010F911F91CF91DF910C94361014
:101E8000990F0008550FAA0BE0E8FEEF161617068B
:101E9000E807F907C0F012161306E407F50798F0F3
:101EA000621B730B840B950B39F40A2661F0232B0C
:101EB000242B252B21F408950A2609F4A140A69588
:101EC0008FEF811D811D089597F99F6780E870E06D
:101ED00060E008959FEF80EC0895DF93CF931F9308
:101EE0000F93FF92EF92DF927B018C01689406C002
:101EF000DA2EEF010E943610FE01E894A59125919B
:101F0000359145915591A6F3EF010E94B40DFE0164
:101F10009701A801DA9469F7DF90EF90FF900F9195
:101F20001F91CF91DF91089500240A941616170689
:101F300018060906089500240A94121613061406BA
:101F4000050608950C946A0F0E94FA0FD8F3E894DE
:101F5000E0E0BB279F57F0F02AED3FE049EC06C0D8
:101F6000EE0FBB0F661F771F881F28F0B23A62077B
:101F70007307840728F0B25A620B730B840BE39546
:101F80009A9572F7803830F49A95BB0F661F771FC9
:101F9000881FD2F790480C942311092E0394000C4B
:101FA00011F4882352F0BB0F40F4BF2B11F460FFF3
:101FB00004C06F5F7F4F8F4F9F4F0895EF93E0FFF7
:101FC00007C0A2EA2AED3FE049EC5FEB0E94B40DA6
:101FD0000E94CD0F0F90039401FC9058EDEBF0E0C0
:101FE0000C94361157FD9058440F551F59F05F3F20
:101FF00071F04795880F97FB991F61F09F3F79F02B
:1020000087950895121613061406551FF2CF4695AC
:10201000F1DF08C0161617061806991FF1CF86952E
:102020007105610508940895E894BB276627772712
:10203000CB0197F908959B01AC0160E070E080E866
:102040009FE30C94420E0E9436100C94CD0F0E9418
:10205000940F38F00E949B0F20F0952311F00C9400
:10206000640F0C946A0F11240C9415100E94F20F47
:1020700070F3959FC1F3950F50E0551F629FF001DB
:10208000729FBB27F00DB11D639FAA27F00DB11DF4
:10209000AA1F649F6627B00DA11D661F829F22277D
:1020A000B00DA11D621F739FB00DA11D621F839F04
:1020B000A00D611D221F749F3327A00D611D231FDA
:1020C000849F600D211D822F762F6A2F11249F5728
:1020D00050409AF0F1F088234AF0EE0FFF1FBB1F2B
:1020E000661F771F881F91505040A9F79E3F5105EA
:1020F00080F00C94640F0C9415105F3FE4F3983E4D
:10210000D4F3869577956795B795F795E7959F5F93
:10211000C1F7FE2B880F911D9695879597F9089525
:102120000E94FA0FE8F09E37E8F09639B8F49E382E
:1021300048F4672F782F8827985FF9CF8695779591
:10214000679593959539D0F3B62FB1706B0F711DCC
:10215000811D20F487957795679593950C940611CA
:102160000C9421110C9415109F930E94A40F0F90B2
:1021700007FCEE5F0C94DE0F19F416F40C946A0F52
:102180000C9421110E94FA0FB8F39923C9F3B6F306
:102190009F57550B87FF0E942F110024A0E640EAAD
:1021A000900180585695979528F4805C660F771FAC
:1021B000881F20F026173707480730F4621B730B7F
:1021C000840B202931294A2BA695179407942025A2
:1021D00031254A2758F7660F771F881F20F02617EA
:1021E0003707480730F4620B730B840B200D311D49
:1021F000411DA09581F7B901842F9158880F9695BC
:10220000879508959B01AC010C942310882371F4E9
:10221000772321F09850872B762F07C0662311F47F
:1022200099270DC09051862B70E060E02AF09A95B6
:10223000660F771F881FDAF7880F9695879597F9AD
:1022400008959F3F31F0915020F4879577956795D9
:10225000B795880F911D9695879597F90895915098
:102260005040660F771F881FD2F708959F938F9372
:102270007F936F93FF93EF939B01AC010E94231018
:10228000EF91FF910E946D0F2F913F914F915F91C0
:082290000C942310F894FFCF19
:00000001FF
